{
  "contractName": "TodoList",
  "abi": [
    {
      "inputs": [],
      "stateMutability": "nonpayable",
      "type": "constructor"
    },
    {
      "anonymous": false,
      "inputs": [
        {
          "indexed": false,
          "internalType": "uint256",
          "name": "id",
          "type": "uint256"
        },
        {
          "indexed": false,
          "internalType": "bool",
          "name": "completed",
          "type": "bool"
        }
      ],
      "name": "TaskCompleted",
      "type": "event"
    },
    {
      "anonymous": false,
      "inputs": [
        {
          "indexed": false,
          "internalType": "uint256",
          "name": "id",
          "type": "uint256"
        },
        {
          "indexed": false,
          "internalType": "string",
          "name": "content",
          "type": "string"
        },
        {
          "indexed": false,
          "internalType": "bool",
          "name": "completed",
          "type": "bool"
        }
      ],
      "name": "TaskCreated",
      "type": "event"
    },
    {
      "inputs": [
        {
          "internalType": "address",
          "name": "",
          "type": "address"
        },
        {
          "internalType": "uint256",
          "name": "",
          "type": "uint256"
        }
      ],
      "name": "tasks",
      "outputs": [
        {
          "internalType": "uint256",
          "name": "id",
          "type": "uint256"
        },
        {
          "internalType": "string",
          "name": "content",
          "type": "string"
        },
        {
          "internalType": "bool",
          "name": "completed",
          "type": "bool"
        }
      ],
      "stateMutability": "view",
      "type": "function",
      "constant": true
    },
    {
      "inputs": [
        {
          "internalType": "address",
          "name": "",
          "type": "address"
        }
      ],
      "name": "tasksCount",
      "outputs": [
        {
          "internalType": "uint256",
          "name": "",
          "type": "uint256"
        }
      ],
      "stateMutability": "view",
      "type": "function",
      "constant": true
    },
    {
      "inputs": [
        {
          "internalType": "string",
          "name": "_content",
          "type": "string"
        }
      ],
      "name": "createTask",
      "outputs": [],
      "stateMutability": "nonpayable",
      "type": "function"
    },
    {
      "inputs": [
        {
          "internalType": "uint256",
          "name": "_id",
          "type": "uint256"
        }
      ],
      "name": "toggleCompleted",
      "outputs": [],
      "stateMutability": "nonpayable",
      "type": "function"
    }
  ],
  "bytecode": "0x608060405234801561001057600080fd5b50610707806100206000396000f3fe608060405234801561001057600080fd5b506004361061004c5760003560e01c8063111002aa14610051578063455f5024146100665780637149d2e4146100795780637b219c39146100a4575b600080fd5b61006461005f3660046103d0565b6100d2565b005b610064610074366004610481565b6101a1565b61008c6100873660046104b6565b610304565b60405161009b939291906104e0565b60405180910390f35b6100c46100b236600461053f565b60016020526000908152604090205481565b60405190815260200161009b565b336000818152600160208181526040808420548151606081018352818152808401888152818401879052968652858452828620828752909352932081518155935192939092909182019061012690826105ea565b50604091820151600291909101805460ff1916911515919091179055517f05d0fb833127fc08168556d0e7ca9554fc3f6bc843b3b7d2bf1c35aea6bab6609061017590839085906000906104e0565b60405180910390a1336000908152600160205260408120805491610198836106aa565b91905055505050565b3360009081526020818152604080832084845282528083208151606081019092528054825260018101805492939192918401916101dd90610561565b80601f016020809104026020016040519081016040528092919081815260200182805461020990610561565b80156102565780601f1061022b57610100808354040283529160200191610256565b820191906000526020600020905b81548152906001019060200180831161023957829003601f168201915b50505091835250506002919091015460ff161515602091820152604080830180511590523360009081528083528181208682528352208251815590820151919250829160018201906102a890826105ea565b50604091820151600291909101805460ff191691151591909117905581810151815184815290151560208201527fe21fa966ca5cd02748c0752352d18c48165e61cb55b4c29cccf924b5a95fcff1910160405180910390a15050565b60006020818152928152604080822090935290815220805460018201805491929161032e90610561565b80601f016020809104026020016040519081016040528092919081815260200182805461035a90610561565b80156103a75780601f1061037c576101008083540402835291602001916103a7565b820191906000526020600020905b81548152906001019060200180831161038a57829003601f168201915b5050506002909301549192505060ff1683565b634e487b7160e01b600052604160045260246000fd5b6000602082840312156103e257600080fd5b813567ffffffffffffffff808211156103fa57600080fd5b818401915084601f83011261040e57600080fd5b813581811115610420576104206103ba565b604051601f8201601f19908116603f01168101908382118183101715610448576104486103ba565b8160405282815287602084870101111561046157600080fd5b826020860160208301376000928101602001929092525095945050505050565b60006020828403121561049357600080fd5b5035919050565b80356001600160a01b03811681146104b157600080fd5b919050565b600080604083850312156104c957600080fd5b6104d28361049a565b946020939093013593505050565b83815260006020606081840152845180606085015260005b81811015610514578681018301518582016080015282016104f8565b506000608082860101526080601f19601f830116850101925050508215156040830152949350505050565b60006020828403121561055157600080fd5b61055a8261049a565b9392505050565b600181811c9082168061057557607f821691505b60208210810361059557634e487b7160e01b600052602260045260246000fd5b50919050565b601f8211156105e557600081815260208120601f850160051c810160208610156105c25750805b601f850160051c820191505b818110156105e1578281556001016105ce565b5050505b505050565b815167ffffffffffffffff811115610604576106046103ba565b610618816106128454610561565b8461059b565b602080601f83116001811461064d57600084156106355750858301515b600019600386901b1c1916600185901b1785556105e1565b600085815260208120601f198616915b8281101561067c5788860151825594840194600190910190840161065d565b508582101561069a5787850151600019600388901b60f8161c191681555b5050505050600190811b01905550565b6000600182016106ca57634e487b7160e01b600052601160045260246000fd5b506001019056fea264697066735822122096aff3e9343c62f10cdd50556b73c44bf451845ddb3860e0096c8258ad70761f64736f6c63430008130033",
  "immutableReferences": {},
  "source": "// SPDX-License-Identifier: MIT\npragma solidity >=0.7.0 <0.9.0;\n\ncontract TodoList {\n  struct Task {\n    uint id;\n    string content;\n    bool completed;\n  }\n\n  constructor() {\n    // createTask(\"Hello World!\");\n  }\n  \n  event TaskCreated(uint id, string content, bool completed);\n\n  event TaskCompleted(uint id, bool completed);\n\n  mapping(address => mapping(uint => Task)) public tasks;\n\n  mapping(address => uint) public tasksCount;\n\n  function createTask(string memory _content) public {\n    uint taskCount = tasksCount[msg.sender];\n    tasks[msg.sender][taskCount] = Task(taskCount, _content, false);\n    emit TaskCreated(taskCount, _content, false);\n    tasksCount[msg.sender]++;\n  }\n\n  function toggleCompleted(uint _id) public {\n    Task memory task = tasks[msg.sender][_id];\n    task.completed = !task.completed;\n    tasks[msg.sender][_id] = task;\n    emit TaskCompleted(_id, task.completed);\n  }\n}",
  "sourcePath": "/Users/apple/Documents/Solidity/solidity_starter/contracts/TodoList.sol",
  "compiler": {
    "name": "solc",
    "version": "0.8.19+commit.7dd6d404.Emscripten.clang"
  },
  "schemaVersion": "3.4.13",
  "updatedAt": "2023-04-07T04:45:35.227Z",
  "networkType": "ethereum",
  "devdoc": {
    "kind": "dev",
    "methods": {},
    "version": 1
  },
  "userdoc": {
    "kind": "user",
    "methods": {},
    "version": 1
  }
}